{
  "contractName": "CryptoDoggies",
  "abi": [
    {
      "anonymous": false,
      "inputs": [
        {
          "indexed": false,
          "name": "_id",
          "type": "uint256"
        },
        {
          "indexed": false,
          "name": "_name",
          "type": "string"
        },
        {
          "indexed": false,
          "name": "_age",
          "type": "uint256"
        },
        {
          "indexed": false,
          "name": "_dna",
          "type": "bytes5"
        }
      ],
      "name": "DoggyCreated",
      "type": "event"
    },
    {
      "constant": false,
      "inputs": [
        {
          "name": "_age",
          "type": "uint256"
        },
        {
          "name": "_name",
          "type": "string"
        },
        {
          "name": "_dna",
          "type": "bytes5"
        }
      ],
      "name": "createDoggy",
      "outputs": [],
      "payable": false,
      "stateMutability": "nonpayable",
      "type": "function"
    }
  ],
  "bytecode": "0x6060604052600a60005560056000540260015560056000540360025560026000540a600355600260005481151561003257fe5b066004556040805190810160405280600481526020017f446f756700000000000000000000000000000000000000000000000000000000815250600590805190602001906100819291906103a4565b506040805190810160405280600481526020017f4b61726c00000000000000000000000000000000000000000000000000000000815250600690805190602001906100cd9291906103a4565b50606060405190810160405280600054815260200160058054600181600116156101000203166002900480601f0160208091040260200160405190810160405280929190818152602001828054600181600116156101000203166002900480156101785780601f1061014d57610100808354040283529160200191610178565b820191906000526020600020905b81548152906001019060200180831161015b57829003601f168201915b5050505050815260200160007b01000000000000000000000000000000000000000000000000000000027affffffffffffffffffffffffffffffffffffffffffffffffffffff1916815250600a6000820151816000015560208201518160010190805190602001906101eb929190610424565b5060408201518160020160006101000a81548164ffffffffff02191690837b01000000000000000000000000000000000000000000000000000000900402179055505050606060405190810160405280600154815260200160068054600181600116156101000203166002900480601f0160208091040260200160405190810160405280929190818152602001828054600181600116156101000203166002900480156102d95780601f106102ae576101008083540402835291602001916102d9565b820191906000526020600020905b8154815290600101906020018083116102bc57829003601f168201915b50505050508152602001640fffffffff7b01000000000000000000000000000000000000000000000000000000027affffffffffffffffffffffffffffffffffffffffffffffffffffff1916815250600d600082015181600001556020820151816001019080519060200190610350929190610424565b5060408201518160020160006101000a81548164ffffffffff02191690837b01000000000000000000000000000000000000000000000000000000900402179055505050341561039f57600080fd5b6104c9565b828054600181600116156101000203166002900490600052602060002090601f016020900481019282601f106103e557805160ff1916838001178555610413565b82800160010185558215610413579182015b828111156104125782518255916020019190600101906103f7565b5b50905061042091906104a4565b5090565b828054600181600116156101000203166002900490600052602060002090601f016020900481019282601f1061046557805160ff1916838001178555610493565b82800160010185558215610493579182015b82811115610492578251825591602001919060010190610477565b5b5090506104a091906104a4565b5090565b6104c691905b808211156104c25760008160009055506001016104aa565b5090565b90565b61053d806104d86000396000f300606060405260043610610041576000357c0100000000000000000000000000000000000000000000000000000000900463ffffffff1680630ab2f41814610046575b600080fd5b341561005157600080fd5b6100d1600480803590602001909190803590602001908201803590602001908080601f016020809104026020016040519081016040528093929190818152602001838380828437820191505050505050919080357affffffffffffffffffffffffffffffffffffffffffffffffffffff19169060200190919050506100d3565b005b6100db610349565b6000606060405190810160405280868152602001858152602001847affffffffffffffffffffffffffffffffffffffffffffffffffffff1916815250915060016007805480600101828161012f919061038f565b9160005260206000209060030201600085909190915060008201518160000155602082015181600101908051906020019061016b9291906103c1565b5060408201518160020160006101000a81548164ffffffffff02191690837b01000000000000000000000000000000000000000000000000000000900402179055505050039050336008600083815260200190815260200160002060006101000a81548173ffffffffffffffffffffffffffffffffffffffff021916908373ffffffffffffffffffffffffffffffffffffffff1602179055506001600960003373ffffffffffffffffffffffffffffffffffffffff1673ffffffffffffffffffffffffffffffffffffffff168152602001908152602001600020600082825401925050819055507f9547215c1e46befec9461cc277edff9eea470f4117aed3b28ba9e58d7b7923c5818587866040518085815260200180602001848152602001837affffffffffffffffffffffffffffffffffffffffffffffffffffff19167affffffffffffffffffffffffffffffffffffffffffffffffffffff19168152602001828103825285818151815260200191508051906020019080838360005b838110156103055780820151818401526020810190506102ea565b50505050905090810190601f1680156103325780820380516001836020036101000a031916815260200191505b509550505050505060405180910390a15050505050565b60606040519081016040528060008152602001610364610441565b815260200160007affffffffffffffffffffffffffffffffffffffffffffffffffffff191681525090565b8154818355818115116103bc576003028160030283600052602060002091820191016103bb9190610455565b5b505050565b828054600181600116156101000203166002900490600052602060002090601f016020900481019282601f1061040257805160ff1916838001178555610430565b82800160010185558215610430579182015b8281111561042f578251825591602001919060010190610414565b5b50905061043d91906104a4565b5090565b602060405190810160405280600081525090565b6104a191905b8082111561049d5760008082016000905560018201600061047c91906104c9565b6002820160006101000a81549064ffffffffff02191690555060030161045b565b5090565b90565b6104c691905b808211156104c25760008160009055506001016104aa565b5090565b90565b50805460018160011615610100020316600290046000825580601f106104ef575061050e565b601f01602090049060005260206000209081019061050d91906104a4565b5b505600a165627a7a7230582004cd8fd8f6aa5d331d28fc4c08183c5f1db827451da05592ff6e42ff538dd80c0029",
  "source": "pragma solidity ^0.4.18;\n\ncontract CryptoDoggies {\n  uint age = 10;\n  uint maxAge = age * 5;\n  uint minAge = age - 5;\n  uint ultraAge = age ** 2;\n  uint modAge = age % 2;\n\n  string name = \"Doug\";\n  string name2 = \"Karl\";\n\n  struct Doggy {\n      uint age;\n      string name;\n      bytes5 dna;\n  }\n\n  Doggy[] doggies;\n\n  mapping (uint256 => address) private doggyIdToOwner;\n  mapping (address => uint256) private numOfDoggies;\n\n  event DoggyCreated(uint256 _id, string _name, uint _age, bytes5 _dna);\n\n  Doggy doggy1 = Doggy({\n      age: age,\n      name: name,\n      dna: bytes5(0x000000000)\n\n  });\n\n  Doggy doggy2 = Doggy({\n      age: maxAge,\n      name: name2,\n      dna: bytes5(0xfffffffff)\n  });\n\n  function createDoggy(uint _age, string _name, bytes5 _dna) public {\n      Doggy memory _doggy = Doggy({\n        age: _age,\n        name: _name,\n        dna: _dna\n      });\n      uint256 newDoggyId = doggies.push(_doggy) - 1;\n      doggyIdToOwner[newDoggyId] = msg.sender;\n      numOfDoggies[msg.sender] += 1; \n      DoggyCreated(newDoggyId, _name, _age, _dna);\n  }\n\n  \n}\n\n\n",
  "sourcePath": "/Users/tamnd/cryptodoggies-base/contracts/CriptoDoggies.sol",
  "compiler": {
    "name": "solc",
    "version": "0.4.19+commit.c4cbbb05.Emscripten.clang"
  },
  "schemaVersion": "2.0.0",
  "updatedAt": "2019-11-21T08:16:20.234Z"
}